:020000040040BA
:10000000482D4020ED0D4000EB0D4000EB0D400071
:10001000EB0D4000EB0D4000EB0D40000000000038
:100020000000000000000000000000009D114000E2
:10003000EB0D400000000000F9114000611240008B
:10004000EB0D4000EB0D4000EB0D4000EB0D4000D0
:10005000EB0D4000EB0D4000EB0D4000EB0D4000C0
:10006000EB0D400000000000D50A4000E90A400006
:10007000FD0A4000EB0D4000EB0D4000EB0D400091
:10008000110B4000250B4000EB0D4000EB0D400034
:10009000EB0D4000EB0D4000EB0D4000EB0D400080
:1000A000EB0D4000EB0D4000EB0D4000EB0D400070
:1000B000EB0D40008D074000EB0D4000EB0D4000C4
:1000C000EB0D4000EB0D4000EB0D4000EB0D400050
:1000D00000000000EB0D400000000000EB0D4000B0
:1000E000A1074000EB0D4000EB0D4000EB0D400080
:1000F000EB0D4000EB0D4000EB0D4000EB0D400020
:10010000EB0D4000EB0D4000EB0D4000EB0D40000F
:10011000EB0D4000000000000000000000000000A7
:10012000EB0D4000EB0D4000EB0D4000EB0D4000EF
:10013000EB0D400000000000EB0D4000EB0D400017
:1001400010B5054C237833B9044B13B10448AFF311
:1001500000800123237010BDC00940200000000072
:10016000106840000C4B43B10C480D4910B5AFF37B
:1001700000800C48036823B910BD0A48036833B9EE
:100180007047094B002BF7D0BDE810401847064BCD
:10019000002BF5D0184700BF000000001068400099
:1001A000C4094020106840000000000010B510484D
:1001B000104B98473E2100200F4B98470F4CA0470B
:1001C0000028FCD00E4B98470E4A0F4B9A620F4CFA
:1001D000A0470028FCD002200D4B984700200D4B73
:1001E00098470D4B98470248024B984710BD00BFF7
:1001F00000A3E111C10F4000D50B4000290C4000C5
:10020000390C4000013F182000060E40490C400008
:10021000390B4000710B4000B50E4000002A54D04D
:100220002DE9F84F924606460F468A44DFF8B8801B
:10023000274DDFF8B89006E021464046A847002841
:10024000FAD1BA453ED017F8014B4645F4D04E4599
:1002500016D0204B9E4219D01F4B9E421CD01F4BE4
:100260009E421FD01E4B9E4224D01E4B9E42E8D180
:10027000DFF87CB021461B48D8470028FAD1E0E7D8
:1002800021464846A8470028FAD1DAE72146114816
:10029000A8470028FAD1D4E721460F48A8470028EC
:1002A000FAD1CEE7DFF848B021460C48D8470028FD
:1002B000FAD1C6E7DFF838B021460948D847002808
:1002C000FAD1BEE70020BDE8F88F0020704700BFDC
:1002D000AD0C4000001A0E40001C0E4000400240D1
:1002E0000080024000C0024000080E40000A0E409C
:1002F000BD0D40002DE9F04180B90C469046002A22
:100300000FDD8F18084E094D306821462B6898473D
:100310000134BC42F8D14046BDE8F0814FF0FF38CF
:10032000F9E78046F7E700BF540C40204C0C402012
:100330000138022815D82DE9F0410E4614469AB12D
:100340000D46DFF838800C4FD8F8000015F8011B77
:100350003B68984700280ADBA81B013CF4D1BDE8A4
:10036000F0814FF0FF3070471046BDE8F0814FF04C
:10037000FF30BDE8F08100BF500C4020540C4020FD
:10038000F8B54FF400425C4B5A60BFF34F8FBFF398
:100390006F8F5A4B0022C3F850225A6942F4003240
:1003A0005A61BFF34F8FBFF36F8FD3F88070C7F3DD
:1003B0004E3607F007000430C7F3C907B7FA87FEC7
:1003C0000EF01F0EBFF34F8F4FF0FF3404FA00FC06
:1003D00006FA00F004FA0EF407FA0EFE1D463A463D
:1003E000734640EA0301C5F86012013A2344B2F1B2
:1003F000FF3FF6D1013E6044B6F1FF3FEFD1BFF3BE
:100400004F8F3E4B5A6942F480325A61BFF34F8F8F
:10041000BFF36F8F3A4A3B495160A1F5807151603B
:10042000BFF34F8FBFF36F8FD3F8902222F00102FA
:10043000C3F89022D3F8942222F00102C3F8942248
:10044000BFF34F8FBFF36F8F0A202F4CA0470B20B5
:10045000A0470C20A0471020A0471120A0472B4BFD
:100460004FF480721A61C3F8A0201A63A3F5806369
:100470004FF400625A61C3F8A0205A66C3F8902076
:100480005A651A62C3F88420196F21F40061196754
:10049000596F21F400615967C3F8C020C3F8D42014
:1004A000C3F8B0204FF400121A66C3F890205A65C2
:1004B0005A62C3F88020196F21F400111967596F2F
:1004C00021F4001159675A60114AD2F8143143F0EF
:1004D0001003C2F814310F4B10221A66C3F8902093
:1004E0005A655A62C3F88020196F11431967596F12
:1004F000114359675A60F8BD50180E4000ED00E0F6
:10050000000C0E400C08005A590C400000120E401E
:100510000080084000100E4070B582B0026BC36AC4
:100520001340019300241C4E1C4DA84214BF002010
:10053000012005010BE00E2C1ED8019A04F10C01DC
:1005400001238B40134210D10134102C22D00B2CEC
:10055000F1D8019A0123A3401342F5D02B1956F884
:100560002330002BF0D09847EEE72B1956F82330B4
:10057000002BE9D09847E7E7019A04F10F01012326
:100580008B401342E0D02B1956F82330002BDBD0E0
:100590009847D9E702B070BD580C40200040064093
:1005A00030B4046E01238B4024EA03041578002D37
:1005B00008BF002323430366446D4B000321994089
:1005C00024EA0104517899402143416530BC7047C9
:1005D0004B780A78134303678A884B8843EA0243BF
:1005E0004367704700220260084B4360084B8360FA
:1005F0004FF48023C3600223037401234374837484
:10060000C274037543758375704700BF00A3E11181
:10061000808D5B000023037001234370704700232B
:10062000037020234370FF23438040F6FF738380D1
:1006300070470000026B12F0807201D019207047E1
:1006400010B401230360CB7C002B18BF4FF0004295
:100650004B688C68B3FBF4F3013B1B029BB2CC6884
:1006600044F4000423430C7C240604F07064234308
:100670004C7C240704F040542343134343600B7D18
:10068000002B14BF4FF0807300230A6813434A7D88
:10069000002A14BF4FF000720022134383608B7D49
:1006A0001B0203F4407343F00C03C0F894300F4B6B
:1006B000984206D00E4B98420DD000205DF8044BB6
:1006C00070470C4B03F14001002243F8042F8B428A
:1006D000FBD10020F2E7084B03F14001002243F870
:1006E000042B8B42FBD10020E8E700BF00C0034091
:1006F00000400640540C4020980C40200C4B99427E
:1007000007D00B290BD806D0012303FA01F141626F
:100710007047436270474FF40063436270470E298D
:1007200094BF0C310F31012303FA01F1416270478C
:10073000FF0F004738B5114CA0420CBF1024002415
:100740000C440F4D45F824200AD10E4A4FF4807412
:10075000C2F884415B01DBB282F82833546009E0BF
:10076000084A4FF00054C2F880415B01DBB282F8C6
:100770001D331460044B984738BD00BF004006404D
:10078000580C402000E100E0FD06400008B502489A
:10079000024B984708BD00BF00C003401905400048
:1007A00008B50248024B984708BD00BF004006400C
:1007B0001905400000B583B0134B98420CBF2820A8
:1007C0001D20124B9847124B9B78FF2B1AD0EFF34A
:1007D0001083B3FA83F35B09019372B6BFF35F8FA3
:1007E00000220C4B1A700199094A937801339370D7
:1007F00029B10122074B1A70BFF35F8F62B603B0B5
:100800005DF804FBFEE700BF00400640590C4000C5
:10081000440C40200A004020C0F8841053004FF4DC
:100820000042B2FBF3F2013AC2F30D02C0F88C2091
:100830007047016370474163704721F00061B1F177
:10084000405F05D1836B134214BF01200020704725
:10085000C36BF8E74264B1F1C05F3AD013D8B1F18D
:10086000006F25D0B1F1805F0AD1036F1343036796
:10087000436F416F0B4023EA0203436742607047B6
:100880000029FBD17047B1F1205F21D009D8B1F127
:10089000005FF3D1036F13430367436F1343436751
:1008A000ECE7B1F1405F13D0B1F1605F10D0E5E744
:1008B00010B4016F046FD34321401C4619400167F7
:1008C000436F416F0B402340436742605DF8044B28
:1008D0007047036F016F0B4023EA02030367436F06
:1008E00013434367CAE7416412F0010F0DD101665B
:1008F00012F00A0F0BD0016212F0020F09D112F0B0
:10090000080F08D0C0F8841005E04166F0E74162A6
:10091000F2E7C0F8801041610160704710B4019C9B
:1009200041644CB901664BB101654AB9416301614B
:1009300001605DF8044B70474166F4E74165F4E7F8
:100940000163F4E770B582B0054616461C46B1F166
:10095000005F14D00AD9B1F1405F24D0B1F1605FDB
:1009600021D0B1F1205F17D000201AE0B1F1805FF3
:1009700005D0B1F1C05F02D0B1F1006FF4D13246C1
:100980002846114B984714F0010F02D12E66012022
:1009900007E06E66012004E01A4631460B4B98478B
:1009A000012002B070BD04F001030093C4F3800382
:1009B000B1F1605F14BF0022012231462846044C89
:1009C000A0470120EDE700BF55084000E7084000C0
:1009D0001D09400012F0100F12D0C0F8B01012F034
:1009E000200F07D0C0F8D41012F0400F05D0C0F887
:1009F000C0107047C0F8D010F6E7C0F8C4107047B8
:100A0000C0F8B410704701647047C06C7047806CC8
:100A1000704700002DE9F04104460E460E4B984702
:100A2000054620460D4B9847054013D00C4C04F169
:100A3000E00803E044450DD010345DB12068B042B9
:100A4000F8D161682942F5D0E3689847636825EAE0
:100A50000305EFE7BDE8F0810B0A40000F0A4000F4
:100A6000DC094020F8B5184C26680E2E2AD84FF025
:100A7000000C6446154F04E00134E4B2A446A642DB
:100A800009D3A64625017D598D42F5D107EB041502
:100A90006D689542F0D10D4D4FEA0E1E05EB0E0428
:100AA00045F80E106260A3600699E1600136664564
:100AB00005D011461A46064B98470020F8BD02495A
:100AC0000E60F6E70120F8BDCC0A4020DC0940208A
:100AD000D509400008B50A210148024B984708BDD6
:100AE000000E0E40150A400008B50B210148024BCC
:100AF000984708BD00100E40150A400008B50C21AB
:100B00000148024B984708BD00120E40150A4000EC
:100B100008B510210148024B984708BD00140E404B
:100B2000150A400008B511210148024B984708BD3D
:100B300000160E40150A4000032811D0042812D0D8
:100B400002280CBF4FF480710021084A136B23F474
:100B500040730B431363936E13F0080FFBD0704781
:100B60004FF44071F1E74FF40071EEE700060E40DC
:100B7000174A136B23F0700318431063936E13F03E
:100B8000080F0AD14FF4805311498A6E12F0080FF2
:100B900003D1013BF9D1012070470D4A136B23F0BB
:100BA000030343F002031363936E13F0080F0AD19B
:100BB0004FF4805306498A6E12F0080F05D1013BAD
:100BC000F9D101207047002070470020704700BF16
:100BD00000060E40A0B90E48036A090289B20D4A08
:100BE0001A400D4B1343194301620246936E13F0F2
:100BF000010FFBD0064A116A084B0B431362704782
:100C000003490B6A064A1A40064B13430B627047AE
:100C100000060E40FCFFC8FF01003700000037014E
:100C2000FCFFC8FE02003701024B986E00F48030D2
:100C3000704700BF00060E404FF00052014B9A6211
:100C4000704700BF00060E40024B986E00F0020095
:100C5000704700BF00060E403F281ED81F280CD842
:100C6000114B9A6901238340934318D0012303FA5F
:100C700000F00D4B18610020704720380A4BD3F864
:100C800008210123834093430BD0012303FA00F092
:100C9000054BC3F800010020704701207047002079
:100CA00070470020704700BF00060E40436913F0F4
:100CB000020F02D0C16100207047012070474369D4
:100CC00013F0010F03D083690B70002070470120DF
:100CD000704710B40B01934214D9C9004B0803EBC1
:100CE000C202B2FBF1F2D3085C1E4FF6FE718C42D9
:100CF00001D9012017E0416841F4002141600CE076
:100D0000012010E0590801EBC202B2FBF3F2D30854
:100D10005C1E4FF6FE718C42F2D8120402F4E022FF
:100D20001A43026200205DF8044B7047084BC0F87C
:100D3000E4300023436043628362882303602423FA
:100D400003604FF4807303604FF400230360704727
:100D50000041535570B505460C4616460F4B984753
:100D600000220F4B1A60A4B13246216828460D4B71
:100D70009847024678B96368A1680B4321690B4321
:100D8000E1680B4306490B6069680B436B601046D2
:100D900070BD0122FBE70122F9E700BF2D0D4000E5
:100DA000D00A4020D30C400040230360704710233A
:100DB000036070474069C0F340007047436913F017
:100DC000020F04D0C1F30801C16100207047012067
:100DD0007047436913F0010F05D08369C3F308031B
:100DE0000B600020704701207047FEE700B583B01C
:100DF000254B264A9A4210D0254B234A9A420CD2C0
:100E0000013B9B1A23F00303043313441F4951F899
:100E1000040B42F8040B9A42F9D11E4B1E4A9A4227
:100E20000AD2013B9B1A23F003030433134400212D
:100E300042F8041B9342FBD1184A194B23F07F035D
:100E40009360EFF31083B3FA83F35B09019372B6F7
:100E5000BFF35F8F0022134B1A700199124A136877
:100E600043F470031360BFF34F8FBFF36F8F29B14B
:100E700001220C4B1A70BFF35F8F62B60B4B984781
:100E80000B4B9847FEE700BF000040201068400071
:100E9000C0094020480D4020C009402000ED00E07E
:100EA000000040000A00402088ED00E0CD384000FE
:100EB000853440003B4B1B6B03F00303012B1DD01B
:100EC00083B1022B36D0374B1B6B03F07003702BB2
:100ED0005FD0344B1A6B3449C2F302120B68D34013
:100EE0000B607047314B5B6913F0800F14BF4FF4F8
:100EF00000424FF4FA422C4B1A60E4E7294B1B6A7C
:100F000013F0807F03D02A4A274B1A60DBE7294A77
:100F1000254B1A60234B1B6A03F07003102B05D07E
:100F2000202BD0D1224A204B1A60CCE7224A1E4BFC
:100F30001A60C8E71B4B1B6A13F0807F16D01C4A4F
:100F4000194B1A60174B1B6B03F00303022BBAD12A
:100F5000144A916A926A1448C1F30A41036801FB7A
:100F60000333D2B2B3FBF2F30360ACE7114A0E4B8A
:100F70001A600C4B1B6A03F07003102B05D0202B5A
:100F8000E0D10B4A084B1A60DCE70B4A064B1A60AB
:100F9000D8E7054A13680949A1FB03135B081360EE
:100FA000704700BF00060E400C00402010180E4095
:100FB000001BB70000093D0000127A00ABAAAAAAE4
:100FC000164B984213D9164B984215D9154B984297
:100FD00016D9154B984217D9144B984218D9144B6F
:100FE000984294BF134A144A144B1A6070474FF04A
:100FF0008062124B1A607047114A104B1A6070479A
:10100000104A0E4B1A6070470F4A0C4B1A6070471B
:101010004FF00422094B1A60704700BFBFF35E0116
:101020007FE7BD023FDB1C04FFCE7B05BFC2DA06B3
:101030007FB639080005000400060004000C0E40CD
:101040000001000400020004000300040A4B1B68B6
:1010500053B1094B1B681A180849914208DB104626
:10106000054A106018467047054A034B1A60F0E7BE
:101070004FF0FF30704700BFD40A4020FCFF4520EE
:10108000482F40204FF0FF3070474FF400534B6023
:1010900000207047012070470020704700F10803CE
:1010A00043604FF0FF328260C3600361002303603E
:1010B000704700230361704743684B609A688A60F9
:1010C0009A68516099600861036801330360704752
:1010D00030B40D68B5F1FF3F02D000F1080202E024
:1010E000026904E01A4653681C68A542FAD25368A4
:1010F0004B6099608A605160086103680133036046
:1011000030BC7047036942688168916082684168B9
:1011100051605A68904205D0002202611868013877
:101120001860704782685A60F6E74FF0800372B625
:1011300083F31188BFF36F8FBFF34F8F62B6FEE763
:1011400006480068006880F3088862B661B6BFF39D
:101150004F8FBFF36F8F00DF00BF000008ED00E08E
:10116000DFF80C00016841F4700101607047000075
:1011700088ED00E04FF0807340F8043C40F8081C14
:10118000054B40F80C3C40F8202C6FF0020340F86F
:10119000243C4438704700BF2B114000064B1968AF
:1011A0000868B0E8F04F80F30988BFF36F8F4FF005
:1011B000000080F311887047D80A4020704700BFB4
:1011C0004FF0800372B683F31188BFF36F8FBFF3C4
:1011D0004F8F62B6024A136801331360704700BF35
:1011E00010004020034A1368013B13600BB983F3DE
:1011F0001188704710004020EFF30980BFF36F8F14
:10120000154B1A681EF0100F08BF20ED108A20E958
:10121000F04F10604DF8043D4FF0800072B680F33F
:101220001188BFF34F8FBFF36F8F62B600F0F6FEE9
:101230004FF0000080F3118808BC19680868B0E816
:10124000F04F1EF0100F08BFB0EC108A80F3098831
:10125000BFF36F8F704700BFD80A4020704700BFB0
:1012600008B5EFF311834FF0800272B682F3118854
:10127000BFF36F8FBFF34F8F62B6054B984718B11E
:101280004FF08052034B1A60002383F3118808BD8E
:10129000DD1C400004ED00E0034A044B1A60072205
:1012A000043B1A60704700BFBF27090014E000E04C
:1012B00008B50C4B1A6842F460021A601A6842F0D2
:1012C00060421A60084B98470022084B1A60084B8E
:1012D0009847084A136843F040431360064B984709
:1012E000064B984720ED00E0991240001000402086
:1012F0006111400034EF00E0411140002B1140002B
:1013000010B50446064B98472046064B98470446BE
:10131000054B98470CB1204610BD044B9847FAE79F
:10132000C11C400045394000151E4000BB2D400047
:1013300048B110B50446044B98472046034B9847E4
:10134000034B984710BD7047C11C40005539400001
:10135000151E400038B504461546026C62B9036894
:1013600023B10020A36B0133A36338BD4068184B41
:10137000984700236360F5E76DB98068154B98477F
:10138000A368226C1344A360626893421CD3236851
:10139000A3600020E6E7C0680E4B9847226C5242DB
:1013A000E3681344E36021688B4202D263681A4405
:1013B000E260022D01D00020D4E7A36B33B1A36B10
:1013C000013BA3630020CDE70020CBE70020C9E765
:1013D0006D234000C53E400030B583B00190446DA0
:1013E000A26BE36B9A4203D30025284603B030BDBD
:1013F0000A4601A920460B4B98470546A36CB3F15A
:10140000FF3F03D0A36C0133A364EEE7636A002BB4
:10141000EBD004F12400044B9847002818BF0125A5
:10142000E3E700BF55134000A1214000026C72B1F8
:1014300010B5C3681344C3604468A34201D3036872
:10144000C3600C46C1682046014B984710BD7047E9
:10145000C53E4000F8B50446224B9847A36C002BCC
:101460001BDD214D214F224E0BE0636AABB104F12D
:101470002400B04778B9A36C013BA364A36C002B94
:101480000BDD636D002BF0D000212046A84701281A
:10149000F1D1B847EFE7B847EDE74FF0FF33A3646A
:1014A000144B98470F4B9847636C002B14DD23694E
:1014B00093B104F110060E4D0C4F07E0636C013B35
:1014C0006364636C002B07DD23692BB13046A847AA
:1014D0000028F3D0B847F1E74FF0FF336364054BC2
:1014E0009847F8BDC1114000D91340009D2240002B
:1014F000A1214000E511400038B504460D46184BC7
:1015000098472268216CE36B03FB01F3D0186060FD
:101510000020A063A2605B1A1344E3604FF0FF3326
:101520006364A364A5B923691BB90E4B98470120D6
:1015300038BD04F110000C4B98470128F5D14FF04D
:1015400080520A4B1A60BFF34F8FBFF36F8FECE7E7
:1015500004F11000064DA84704F12400A847E4E771
:10156000C1114000E5114000A121400004ED00E060
:101570009D104000F8B5054617460E4659B100FBD0
:1015800001F059300D4B9847044618B100F158034B
:10159000036006E0F8BD5820084B9847044660B148
:1015A0002460E563266401212046054B984784F8B2
:1015B0005070002363652046F8BDF8BD011340005C
:1015C000F91440002DE9F04F85B004468A46019297
:1015D0001F4600264A4DDFF85481DFF834914AE077
:1015E0003A4651462046474B9847636DA3B139466A
:1015F0002046454B9847012805D0444B9847012089
:1016000005B0BDE8F08F4FF08052414B1A60BFF338
:101610004F8FBFF36F8FF0E7636A53B90028ECD0A8
:101620004FF080523A4B1A60BFF34F8FBFF36F8F6A
:10163000E3E704F12400374B98470128DDD14FF050
:101640008052334B1A60BFF34F8FBFF36F8FD4E7D5
:101650002E4B98470020D3E702A8C04717E000238D
:1016600063641DE00023A3641EE020462A4B9847D4
:101670002A4B98470126A847A26BE36B9A42AFD347
:10168000022FADD0019B002BE2D0002EE4D01F4BE7
:101690009847234B9847A847636CB3F1FF3FDED0D0
:1016A000A36CB3F1FF3FDDD0184B984701A902A806
:1016B0001C4B9847E0B9A847D4F838B0E66B134BF9
:1016C0009847B345D1D1019904F11000164B9847C2
:1016D0002046114B9847114B98470028CAD14FF02C
:1016E0008053C9F80030BFF34F8FBFF36F8FC1E74E
:1016F0002046094B9847094B9847002080E700BFD8
:10170000C111400055134000D9134000E5114000BD
:1017100004ED00E0A121400055144000151E4000DA
:10172000C11C400039224000CD2040002122400051
:10173000F8B5EFF311874FF0800472B684F3118887
:10174000BFF36F8FBFF34F8F62B6856BC46BA5423B
:1017500005D3022B03D0002087F31188F8BD1D4666
:10176000164604461A46134B9847A36CB3F1FF3F45
:1017700004D0A36C0133A3640120EDE7636D43B192
:10178000294620460C4B984786B101280ED130607F
:10179000E2E7636A0BB90120DEE704F12400074B9E
:1017A00098472EB120B101203060D5E70120D3E762
:1017B0000120D1E755134000D9134000A12140007A
:1017C0002DE9F04784B004468A46019299460026E6
:1017D0004D4DDFF864814D4F54E0E5685146204699
:1017E0004B4B9847B9F1000F1FD1A36B013BA3638B
:1017F00023683BB123694BB9464B9847012004B09D
:10180000BDE8F087444B98476060F3E704F11000AF
:10181000424B98470128EFD14FF080523B4B1A6062
:10182000BFF34F8FBFF36F8FE6E7E560636A002B6E
:10183000E2D004F12400394B98470028DCD04FF067
:101840008052324B1A60BFF34F8FBFF36F8FD3E7D5
:10185000304B98470020D2E702A8C0471BE0002386
:10186000636421E00023A36422E0A84760682C4B56
:101870009847284B98472BE020462A4B98472A4BFD
:1018800098470126A847A36B002BA6D1019B002BEC
:10189000DED0002EE0D01F4B9847244B9847A84736
:1018A000636CB3F1FF3FDAD0A36CB3F1FF3FD9D043
:1018B000184B984701A902A81D4B9847E0B9A847C3
:1018C000A66B144B9847002ED6D12368002BCCD0A2
:1018D000019904F12400174B98472046114B984773
:1018E000114B98470028CCD14FF080533B60BFF399
:1018F0004F8FBFF36F8FC4E720460A4B98470A4BC0
:10190000984700207BE700BFC111400004ED00E0D4
:101910002D144000E5114000F1234000A1214000BA
:10192000C922400055144000151E4000C11C400053
:1019300039224000CD2040002122400010B40B4B42
:101940001B6853B10123094C54F8332032B10133E1
:10195000082BF9D15DF8044B70470023034A42F885
:10196000331002EBC3035860F4E700BFD80C4020EB
:1019700070B504460D4616460F4B9847636CB3F19D
:10198000FF3F0BD0A36CB3F1FF3F0AD00B4B98473E
:10199000A36B4BB120460A4B984770BD002363648C
:1019A000F0E70023A364F1E73246294604F124005E
:1019B000044B9847EEE700BFC1114000E51140001D
:1019C0005514400039214000084B1B681B683BB18F
:1019D000064B1B68DB68DB685A68054B1A6070476A
:1019E0004FF0FF32024B1A60704700BFDC0A402004
:1019F000880B402010B50F4B1B6858600E4B1B68BE
:101A000098420ED304460D4B18680A4B19680431EE
:101A10000B4B98470B4B1B689C4201D2094B1C6037
:101A200010BD094B1868034B19680431044B9847E3
:101A300010BD00BFD80A4020D00B4020DC0A402057
:101A4000D1104000880B4020E00A40202DE9F04FE3
:101A500083B000900E4617460193DDF830B0DDF8F4
:101A600034A00E9D002D00F0898058205F4B9847D0
:101A70000446002800F088800563BA00A5212846A6
:101A80005B4B98476FF040433B44256B05EB830568
:101A900025F00705337884F8343033785BB133466A
:101AA00004F134020936597802F8011F13F8011FB6
:101AB00009B1B342F7D1002784F83D705E46042E89
:101AC00028BF0426E662A664E76404F104084046E1
:101AD000DFF87091C84704F11800C8472461C6F1C7
:101AE0000506A6616462276584F85470019A00991E
:101AF0002846404B98472060BAF1000F01D0CAF841
:101B000000403D4B98473D4A1368013313603C4BFE
:101B10001B68002B3ED03B4B1B6833B9384B1B680E
:101B2000DB6A9B4501D3364B1C60374A136801338F
:101B300013602364E06A354A1168012383400B4334
:101B4000136000EB80004146314B03EB8000314BCA
:101B50009847314B98472B4B1B68002B40D0284BA4
:101B60001B68DB6A9B453FD94FF080522B4B1A60B4
:101B7000BFF34F8FBFF36F8F012032E090001B4BFC
:101B80009847054618B170E72846254B98474FF00F
:101B9000FF3026E01A4B1C601368012BC5D11C4E88
:101BA0003046204DA84706F11400A84706F128004A
:101BB000A84706F13C00A84706F15000A8471A4F75
:101BC0003846A847194E3046A8471948A84719482B
:101BD000A8471948A847194B1F60194B1E60A4E776
:101BE000012003B0BDE8F08F0120FAE701134000A7
:101BF000F93F400075114000C1114000480B4020E2
:101C0000D80A4020A40B4020540B40205C0B4020FD
:101C1000E40A4020B9104000E511400004ED00E066
:101C2000311340009D104000600B4020740B402099
:101C3000900B4020BC0B4020A80B4020DC0A402029
:101C4000E00A4020B310400010B584B00023039395
:101C5000029301930093822211491248124CA0472B
:101C6000012801D004B010BD104B98470128F9D1CC
:101C70004FF0800372B683F31188BFF36F8FBFF309
:101C80004F8F62B64FF0FF32094B1A600122094BA9
:101C90001A600022084B1A60084B9847E2E700BF21
:101CA00048654000851F40004D1A4000C92440008F
:101CB000880B4020A40B4020D00B4020B1124000E4
:101CC000024A136801331360704700BF500B402075
:101CD000014B1868704700BFD00B40202DE9F0473A
:101CE0003D4B1B68002B6ED13C4B1A6801321A60C9
:101CF000D3F800A0BAF1000F1BD0394B1B689A45EE
:101D000024D20026374B1B68DB6A03EB8303364A79
:101D100052F82330022B28BF0126344B1B68002BBE
:101D20004ED0334B1B68002B0CBF30460120BDE862
:101D3000F087304A1168304B1868106019602F4ADC
:101D40001368013313602E4B9847D6E70026294FBE
:101D5000DFF8B890DFF8B88021E04FF0FF32204B79
:101D60001A60CFE71E4A1360CCE704F11800C84799
:101D7000E06AD8F80020012383401343C8F80030FC
:101D800000EB80002946184B03EB80001D4B984761
:101D9000144B1B68E26ADB6A9A4228BF01263B6843
:101DA0001B68002BD9D03B68DB68DC6863689A4508
:101DB000D8D3251D2846C847A36A002BD5D1D7E71D
:101DC000114B9847ADE7094A1368013313600E4B76
:101DD00098470026A5E700BF500B4020D00B4020BD
:101DE000880B4020D80A4020E40A40204C0B4020B9
:101DF000D40B4020DC0A4020E00A40208C0B40201D
:101E0000C9194000B9104000B92D4000051140002B
:101E10005C0B40202DE9F8432F4B98472F4B1A6855
:101E2000013A1A601B68002B50D12D4B1B6833B34D
:101E30002C4EDFF8D4802C4FDFF8D090336803B3FA
:101E4000F368DC6804F11800C047251D2846C04728
:101E5000E06A3A680123834013433B6000EB800053
:101E6000294609EB8000214B9847214B1B68E26A09
:101E7000DB6A9A42E2D301221E4B1A60DEE700249D
:101E800025E01D4B1B688BB11B4B1B6873B11B4DB1
:101E9000184E194C04E02368013B236023682BB1E2
:101EA000A8470028F7D001233360F4E7114B1B68E3
:101EB000012B01D000240AE04FF08052104B1A6031
:101EC000BFF34F8FBFF36F8F012400E000240D4B51
:101ED00098472046BDE8F883C1114000500B4020D0
:101EE000480B4020900B40205C0B4020B910400074
:101EF000D80A4020D40B40204C0B4020DD1C400071
:101F000004ED00E0E511400005114000E40A402026
:101F100010B540B94FF08052124B1A60BFF34F8F8B
:101F2000BFF36F8F10BD04460F4B98470F4B1B68D4
:101F30001C440F4B186804300E4B984748B90C4BA3
:101F40001A680D490B68D06A0122824023EA020315
:101F50000B602046094B9847094B98470028E1D170
:101F6000D8E700BF04ED00E0C11C4000D00B4020CA
:101F7000D80A4020051140005C0B4020F5194000B4
:101F8000151E400080B5DFF88880194EDFF8849078
:101F90002AE0184B1B68012B1ED82B68002BF8D0A9
:101FA000C0473468B847002CF7D0134B9847F36804
:101FB000DC68201D114B9847114A1368013B1360E0
:101FC0002B68013B2B600F4B9847206BDFF848A034
:101FD000D0472046D047E0E74FF08053C9F80030A3
:101FE000BFF34F8FBFF36F8F074D084FD5E700BF8B
:101FF000BC0B4020E40A4020C11140000511400004
:10200000480B4020E5114000580B4020151E4000B1
:10201000C11C400004ED00E031134000254B1B685B
:10202000002B2ED110B50022234B1A60234B1B68C6
:102030001B6B1A68B2F1A53F27D0204B18681968AE
:1020400034311F4B98471F4B1B68B3FA83F3DBB245
:10205000C3F11F031C4A9900C81802EB80004468B2
:102060006468446019440246083294421AD003EB73
:102070008303154A02EB83035B68DA680F4B1A602F
:1020800010BD01220C4B1A6070475A68B2F1A53F8F
:10209000D3D19A68B2F1A53FCFD1DB68B3F1A53FA8
:1020A000CBD1D0E760680A46074901EB8202506055
:1020B000DDE700BF500B4020D40B4020D80A402061
:1020C000A12D40005C0B4020E40A402038B50D46AD
:1020D000114C21681831114B984720680430104B7F
:1020E000984740B922680F490B68D06A01228240A4
:1020F00023EA02030B60B5F1FF3F05D00A4B1868D5
:1021000028440A4B984738BD034B196804310848E6
:10211000084B984738BD00BFD80A4020D110400076
:10212000051140005C0B4020D00B4020F519400009
:10213000A80B4020B910400070B50E461546114C52
:1021400021681831104B9847206804300F4B98478E
:1021500040B922680E490B68D06A0122824023EA06
:1021600002030B60012D05D00A4B186830440A4B5E
:10217000984770BD034B196804310848024B9847D3
:1021800070BD00BFD80A4020B910400005114000C2
:102190005C0B4020D00B4020F5194000A80B4020DC
:1021A00038B5C368DC6804F118052846144B984715
:1021B000144B1B68E3B9251D2846114B9847E06A6C
:1021C000114A1168012383400B43136000EB800028
:1021D00029460E4B03EB80000D4B98470D4B1B68B7
:1021E000E26ADB6A9A4208D901200B4B186038BDBD
:1021F00029460A48064B9847F0E7002038BD00BF43
:1022000005114000500B40205C0B4020E40A4020A8
:10221000B9104000D80A4020D40B4020900B402039
:10222000034B1B680360034B1B684360704700BF90
:102230008C0B4020D00B402038B504460D46124B85
:102240009847124B1A682B68B3F1FF3F18D010491A
:1022500009682068884202D061688A4212D26168A7
:10226000501A834204D801240A4B9847204638BDAF
:102270008A1A13442B602046074B98470024F3E743
:102280000024F1E70124EFE7C1114000D00B40200A
:102290008C0B4020E5114000212240000122014B1F
:1022A0001A607047D40B4020054B1B6833B1054BB7
:1022B0001B68002B0CBF02200020704701207047D4
:1022C000A40B4020500B4020002844D038B50446D1
:1022D000C26A21490968C96A8A4214D281690029FF
:1022E00005DB1D490968C96AC1F10501816102EB7D
:1022F00082021A4901EB82026169914204D0164AB6
:102300001268D26AE26238BD251D2846144B9847F0
:1023100070B9E36A03EB8301104A52F821203AB9FD
:1023200010480268012101FA03F322EA0303036063
:10233000094B1B68D86AE0620A4A1168012383408E
:102340000B43136000EB80002946044B03EB800035
:10235000054B984738BD7047D80A4020E40A402012
:10236000051140005C0B4020B9104000002833D01C
:1023700038B50446C26C013AC264C06AA16C884296
:102380002CD05ABB251D2846154B984770B9E36AD7
:1023900003EB8301134A52F821203AB9124802682C
:1023A000012101FA03F322EA03030360A06CE06257
:1023B000C0F10503A3610C4A1168012404FA00F37B
:1023C0000B43136000EB80002946064B03EB8000B3
:1023D000064B9847204638BD00207047002038BD86
:1023E00005114000E40A40205C0B4020B910400079
:1023F000054B1B6823B1044B1A68D36C0133D364BB
:10240000014B1868704700BFD80A402008B54160EA
:10241000006191420CD8D21A83699A4201D30120FB
:1024200008BD011D094B1868094B9847002008BDDD
:102430009A4203D2994201D3012008BD011D054BE8
:102440001868034B9847002008BD00BFDC0B4020F4
:10245000D1104000D80B402070B5104B9847104B5E
:102460001B6813B10F4B984770BD0F4D28460F4E98
:10247000B0470F4C2046B0470E4B1D600E4B1C6002
:102480000022102105200D4B9847054B18600028AD
:10249000E8D00B490B4B9847E4E700BFC11140005F
:1024A0000C0C4020E5114000E00B40209D10400046
:1024B000F40B4020D80B4020DC0B40207515400069
:1024C000506540003D19400010B584B00A4B984754
:1024D0000A4B1B686BB10023039302930193042200
:1024E00000924FF4827206490648074CA04704B098
:1024F00010BD0020FBE700BF592440000C0C402019
:1025000058654000092640004D1A400030B585B09E
:10251000104C2568DDB11C460091019202900529FE
:102520000EDC0D4B984702284FF000030CBF089AB1
:102530001A46694607480068084CA04705B030BDF8
:102540000023224669462846054CA047F6E70020AE
:10255000F4E700BF0C0C4020A9224000C515400044
:10256000311740002DE9F04782B080461F4B984755
:1025700007461F4B1B68984210D30023C8F8003051
:102580001B4B1F60384602B0BDE8F0870021009168
:102590000B4652462046174CA04701E0164D174EF9
:1025A0002B681A68C2B1DB68D3F800A0DC6804F1BC
:1025B00004094846B047636A20469847E369012BFF
:1025C000EED1A36953449A45E0D263602461494641
:1025D00028680B4B9847E3E70A4A106806490860E9
:1025E00013600123C8F80030CAE700BFD11C4000C7
:1025F000080C40200D254000D80B4020051140005C
:10260000D1104000DC0B40202DE9F04F89B0634E23
:10261000634F644DDFF8B091DFF8B08133681A681A
:10262000002A00F0A980DB68D3F800A0B84704A80E
:102630005D4B98470446049B002B37D1504511D27F
:102640000022AAEB04012868584B9847584B98473A
:1026500070BB4FF08053C9F80030BFF34F8FBFF30A
:102660006F8F25E0524B98473368DB68D3F80CB086
:102670000BF10400C047DBF81C30012B04D0DBF861
:1026800024305846984713E0DBF81810534622468A
:1026900051445846474CA0470128F0D100210091F1
:1026A0000B4652465846444CA047E8E7404B9847F3
:1026B000424C06E007990698059B9847049B002B1F
:1026C00009DA00231A4604A92868A0470028A5D0E3
:1026D000049B002BEEDBDDF818A0DAF8143013B100
:1026E0000AF10400C04703A82F4B9847049B092B0D
:1026F000E7D801A252F823F021274000212740000B
:1027000021274000C32640005D274000712740007C
:102710002127400021274000C32640005D274000BC
:10272000059CDAF818102346024621445046214CF5
:10273000A0470128BCD1DAF8243050469847DAF88F
:102740001C30012BB4D1DAF81820002100910B467F
:10275000059802445046184CA047A9E70599CAF8C5
:1027600018100346024601445046124CA0479FE70A
:102770005046134B98479BE7B84704A80A4B984725
:102780000446049B002B91D10E4B1B681A68B2FAC9
:1027900082F252094FF0000A53E700BFD80B4020E5
:1027A000C11C40000C0C4020652540007119400000
:1027B000151E40000D2440000D254000C1174000AB
:1027C00031134000DC0B402004ED00E00511400017
:1027D00070B50C462A4B984213D02A4B984219D018
:1027E000294B98421FD0294B984225D0284B98421C
:1027F0002BD0284B984231D0274B984237D000201D
:1028000070BD1E46254D21463046A8470028FAD106
:10281000012070BD1E46214D21463046A8470028A4
:10282000FAD1012070BD1E461C4D21463046A847F6
:102830000028FAD1012070BD1E46184D21463046B1
:10284000A8470028FAD1012070BD1E46144D21462C
:102850003046A8470028FAD1012070BD1E46104D11
:1028600021463046A8470028FAD1012070BD1E46F7
:102870000B4D21463046A8470028FAD1012070BDF3
:1028800000080E40000A0E40001A0E40001C0E40C8
:10289000004002400080024000C00240AD0C4000F9
:1028A000BD0D400010B582B0002400944FF080426E
:1028B0004FF020510748084B9847B0FA80F0400984
:1028C000019023462246694604480068044CA0470C
:1028D00002B010BD00120E403B084000180D402011
:1028E0003117400010B582B00123009308224FF049
:1028F00020510848084B9847B0FA80F040090190F1
:1029000000231A46694605480068054CA04702B0F6
:1029100010BD00BF000E0E403B084000180D4020C7
:102920003117400010B582B0022300934FF00042EF
:102930004FF020510748084B9847B0FA80F0400903
:10294000019000231A46694604480068044CA047D9
:1029500002B010BD00120E403B084000180D402090
:102960003117400010B582B0032300934FF40022CA
:102970004FF020510748084B9847B0FA80F04009C3
:10298000019000231A46694604480068044CA04799
:1029900002B010BD000E0E403B084000180D402054
:1029A0003117400010B582B0042300934FF4001299
:1029B0004FF020510748084B9847B0FA80F0400983
:1029C000019000231A46694604480068044CA04759
:1029D00002B010BD00140E403B084000180D40200E
:1029E0003117400010B582B0052300934FF48012D8
:1029F0004FF020510748084B9847B0FA80F0400943
:102A0000019000231A46694604480068044CA04718
:102A100002B010BD00140E403B084000180D4020CD
:102A20003117400010B582B0062300934FF080624A
:102A30004FF020510748084B9847B0FA80F0400902
:102A4000019000231A46694604480068044CA047D8
:102A500002B010BD00140E403B084000180D40208D
:102A60003117400010B582B0072300934FF40012D5
:102A70004FF020510748084B9847B0FA80F04009C2
:102A8000019000231A46694604480068044CA04798
:102A900002B010BD000E0E403B084000180D402053
:102AA0003117400010B582B00823009301224FF087
:102AB00020510848084B9847B0FA80F0400901902F
:102AC00000231A46694605480068054CA04702B035
:102AD00010BD00BF000E0E403B084000180D402006
:102AE0003117400010B582B0092300934FF4003233
:102AF0004FF020510748084B9847B0FA80F0400942
:102B0000019000231A46694604480068044CA04717
:102B100002B010BD00120E403B084000180D4020CE
:102B20003117400010B582B00A2300934FF0805255
:102B30004FF020510748084B9847B0FA80F0400901
:102B4000019000231A46694604480068044CA047D7
:102B500002B010BD00140E403B084000180D40208C
:102B60003117400010B582B00B23009310224FF0B4
:102B700020510848084B9847B0FA80F0400901906E
:102B800000231A46694605480068054CA04702B074
:102B900010BD00BF000E0E403B084000180D402045
:102BA0003117400010B582B001230093064B052277
:102BB0005A669B6E019300231A46694603480068D3
:102BC000034CA04702B010BD00C003401C0D4020C4
:102BD0003117400010B582B000220092064B02214E
:102BE00059669B6E01931346694604480068044C7D
:102BF000A04702B010BD00BF00C003401C0D402024
:102C0000311740002DE9F0418AB0224C2046224B7A
:102C1000984704A8214B984704A92046204B984781
:102C2000636823F08F03636001231E4A022120465C
:102C30001D4DA84701231D4A05212046A84701A88C
:102C40001B4B984700238DF8053001AA022120462E
:102C5000184B9847022363664FF40073E36605221E
:102C60006266E36602A8144B984702A92046134BFC
:102C700098474FF004086427C4F8148002262660A1
:102C800038460F4DA8472023636126603846A84781
:102C9000F2E700BF00C00340B5074000E505400073
:102CA00035064000D52B400035074000A52B4000DD
:102CB00015064000A10540001F064000D105400058
:102CC000111F4000F0B583B005460C460023019368
:102CD0002A4B984213D02A4B984218D0294B98423D
:102CE0001DD0294B9D4222D0284B9D4227D0284BF6
:102CF0009D422ED0274B9D4235D003B0F0BD1F46DC
:102D0000254E21463846B0470028FAD1E9E71F464C
:102D1000214E21463846B0470028FAD1E4E71F4645
:102D20001D4E21463846B0470028FAD1DFE71F463E
:102D3000194E21463846B0470028FAD1DAE71E4638
:102D4000164D01A93046A8470028FAD1019B2370EF
:102D5000D3E71E46114D01A93046A8470028FAD1F5
:102D6000019B2370C9E71E460C4D01A93046A847B8
:102D70000028FAD1019B2370BFE700BF00080E4076
:102D8000000A0E40001A0E40001C0E400040024097
:102D90000080024000C00240BF0C4000D30D400044
:102DA00008B50A4601460248024B9847FEE700BFB5
:102DB000646640001D39400070477047F0B583B02D
:102DC0000A209C4CA0470B20A0470C20A0471020B5
:102DD000A047994F09224FF080413846974EB0479F
:102DE000974C092208212046B04709224FF00041A4
:102DF0003846B04709224FF400212046B047914D94
:102E000009224FF400112846B04709224FF48011DF
:102E10002846B04709224FF080612846B047092272
:102E20004FF400112046B047092201212046B04747
:102E300009224FF400313846B04709224FF0805143
:102E40002846B047092210212046B0474F224FF0B4
:102E5000804138467C4EB0474F2208212046B0477B
:102E60004F224FF000413846B0474F224FF4002127
:102E70002046B0474F224FF400112846B0474F225A
:102E80004FF480112846B0474F224FF0806128460A
:102E9000B0474F224FF400112046B0474F22012186
:102EA0002046B0474F224FF400313846B0474F22FA
:102EB0004FF080512846B0474F2210212046B0479E
:102EC000624B009340234FF080420C213846604E05
:102ED000B047604B0093402308220A212046B047A8
:102EE0005D4B009340234FF000420C213846B04721
:102EF0005A4B009340234FF400220A212046B0474A
:102F0000574B009340234FF4001210212846B0473E
:102F1000544B009340234FF4801210212846B047B1
:102F2000514B009340234FF0806210212846B04758
:102F30004E4B009340234FF400120A212046B04725
:102F40004B4B0093402301220A212046B047494BB6
:102F5000009340234FF400320C213846B047464BD3
:102F6000009340234FF0805210212846B047434B36
:102F70000093402310220A212046B047404B4FF4D3
:102F800080561E60A02283F80C234FF480611960E4
:102F900083F80A231E6083F80C23196083F80A2340
:102FA0004FF48030186083F81023186083F81023E2
:102FB000186083F81023196083F80A23196083F8D6
:102FC0000A231E6083F80C23186083F8102319600D
:102FD00083F80A234FF0804138462A4EB047082133
:102FE0002046B0474FF000413846B0474FF400212B
:102FF0002046B0474FF400112846B0474FF48011E7
:103000002846B0474FF080612846B0474FF4001182
:103010002046B04701212046B0474FF400313846E2
:10302000B0474FF080512846B04710212046B047A6
:1030300003B0F0BD590C400000120E40E7084000FC
:10304000000E0E4000140E4019084000A528400054
:10305000650A4000E5284000252940006529400018
:10306000A5294000E5294000252A4000652A4000A6
:10307000A52A4000E52A4000252B4000652B400092
:1030800000E100E0070A400038B505460C46084656
:10309000034B9847024621462846024B984738BDC5
:1030A000814240001D0240002DE9F04F85B00190A3
:1030B0008B4615469846104B984707460BF1FF3A4A
:1030C000013D00240C4EDFF83490B047C01B404552
:1030D0000BD2AC4209D003A90198C8470028F4D10B
:1030E0000134039B0AF8013FEFE700230BF804309B
:1030F000204605B0BDE8F08FD11C4000D30D400044
:1031000070B504460D4616461946044B9847049B75
:10311000324629462046024CA04770BD8930400007
:10312000A9304000F0B587B00D20174CA0474FF4F0
:1031300016530093C02301934FF4006302930025BC
:10314000039504950D20A047104C114A694620466E
:10315000104B98472046104FB84720460F4EB047B7
:103160002046B8472046B0470D4E2B4601224FF06F
:10317000C05130460B4CA0472B4602224FF0C051A5
:103180003046A04707B0F0BD590C40000040024057
:1031900080D1F008550D4000A90D4000AF0D400052
:1031A00000100E40450940002DE9F041A2B0DFF8C3
:1031B00090801E4E6427009743464FF47A7202A90E
:1031C00030461B4DA84702A81A4CA047009743461B
:1031D0004FF47A7202A93046A84702A8A047009788
:1031E00043464FF47A7202A93046A84702A8A04786
:1031F0004FF47A770097104B3A4602A93046A84719
:1032000002A8A047009743463A4602A93046A8477D
:1032100002A8A0470097094B3A4602A93046A847A2
:1032200002A8A04722B0BDE8F08100BF00400240E4
:10323000013140001D394000646540007465400064
:10324000606540002DE9F04F8BB0002208210A2074
:103250006E4CA0476E4B1860002208210D20A0473D
:103260006C4B18606C486D4CA0476D4B98476D4B8C
:1032700098476D48A0476D4B98476D4C4FF0804183
:1032800020466C4B98476C486C4B98474FF08041F8
:1032900020466B4B98474FF0300ACDF804A0DFF87A
:1032A00074B1DFF8DC915DE0059A049965485B4BE9
:1032B0009847059B5BB1049B0AAA1344312203F88B
:1032C000102C4FF4807160485A4B98475BE0049B88
:1032D0000AAA1344302203F8102C4FF480715A4884
:1032E000574B98474FE0594959485A4B98475023F4
:1032F000019308E058495648564B98474E2301938E
:1033000001E0012B5DD0554C554DDFF8588120462A
:10331000A8470028FBD017F8011B2046C047B7423A
:10332000F5D14E4D4E4C2846A0470028FBD00199C0
:103330004A484C4B9847494D494C2846A0470028DD
:10334000FBD051464548474B9847444D444C28468E
:10335000A0470028FBD058214048424B98470A20FC
:10336000414B984706AF0DF125023E464E2306F825
:10337000013B9642FBD10023012204A9DBF80000A7
:10338000C847002890D10023012202A920480068E4
:10339000C8470028B7D0029B002BB2D1039BA3F6ED
:1033A0009803B3F5FA7F9EDC13F5FA7FA2DB019B4D
:1033B000302BA8D02D492648264B9847302301931F
:1033C000A1E7039BA3F69803B3F5FA7F0CDC13F592
:1033D000FA7F14DBBAF1300F95D025491C481D4BFC
:1033E00098474FF0300A8EE7194D22492846194C6C
:1033F000A04721492846A0474FF0500A83E71F49BC
:103400001348144B98474FF04E0A7CE7751540005F
:103410001C0D4020180D4020B06540001D394000B3
:1034200025314000A9314000CC654000BD2D400051
:1034300000140E403708400049569A000100402011
:1034400033084000D465400000120E40F065400093
:103450000080024089304000006640000040024089
:10346000B50D4000BD0D4000111F4000106640002A
:10347000586640001C6640002C66400048664000CC
:10348000C117400080B58AB0314B9847314B9847FF
:1034900000240094234622464FF480712E482F4E7C
:1034A000B0472F4D0094234622464FF080412846D6
:1034B000B0474FF0804128462A4B98472A4D2B4B66
:1034C0001D602B4A2B4B1A602B4A2C4B1A604FF471
:1034D000E1330493C02305934FF4006606960794E6
:1034E00008940E20264B9847264A04A92846264BC6
:1034F00098472846254B98472846254B9847254FFF
:103500003B6821469868244DA8473B682146586887
:10351000A8473B6821469868A84703940294019401
:103520000094234632461D491D481E4DA84703946A
:10353000029401940094234632461B491B48A84735
:10354000012802D01A481B4B98471B4B9847FEE7AF
:10355000AD0140008103400000120E401D094000F3
:1035600000140E403308400000800240540C4020FC
:10357000D1274000500C4020C52C40004C0C40206E
:10358000590C400080D1F008550D4000A90D4000B5
:10359000AF0D400014004020D14040008065400045
:1035A000453240004D1A400084654000052C400023
:1035B0008C6540001D394000491C400053B94AB990
:1035C000002908BF00281CBF4FF0FF314FF0FF302B
:1035D00000F07AB9ADF1080C6DE904CE00F006F800
:1035E000DDF804E0DDE9022304B070472DE9F0477F
:1035F0008C460D460446089E002B51D18A42174640
:103600006DD9B2FA82FEBEF1000F0BD0CEF1200CC4
:1036100001FA0EF520FA0CFC02FA0EF74CEA050C42
:1036200000FA0EF44FEA174A250CBCFBFAF81FFA11
:1036300087F90AFB18CC45EA0C4508FB09F3AB42B5
:103640000AD9ED1908F1FF3280F02381AB4240F234
:103650002081A8F102083D44ED1AA4B2B5FBFAF0AE
:103660000AFB105544EA054400FB09F9A14509D9B4
:10367000E41900F1FF3380F00A81A14540F207818F
:1036800002383C44A4EB090440EA08400021002E23
:1036900061D024FA0EF4002334607360BDE8F08733
:1036A0008B4207D9002E54D0002186E8210008461D
:1036B000BDE8F087B3FA83F1002940F08E80AB4279
:1036C00002D3824200F2FA80841A65EB03050120DE
:1036D000AC46002E3FD086E81010BDE8F08712B946
:1036E0000127B7FBF2F7B7FA87FEBEF1000F34D11E
:1036F000EB1B3A0C1FFA87FC0121B3FBF2F8250CF7
:1037000002FB183345EA03450CFB08F3AB4207D92B
:10371000ED1908F1FF3002D2AB4200F2D1808046B1
:10372000ED1AA3B2B5FBF2F002FB105543EA0544D3
:103730000CFB00FCA44507D9E41900F1FF3302D2C9
:10374000A44500F2B8801846A4EB0C0440EA0840F7
:103750009DE731463046BDE8F087CEF1200405FAFA
:103760000EF307FA0EF720FA04F83A0C25FA04F4DF
:1037700048EA0308B4FBF2F14FEA184502FB114492
:103780001FFA87FC45EA044501FB0CF3AB4200FA43
:103790000EF409D9ED1901F1FF3080F08A80AB42B7
:1037A00040F2878002393D44EB1A1FFA88F5B3FBDB
:1037B000F2F002FB103345EA034500FB0CF3AB4289
:1037C00007D9ED1900F1FF386FD2AB426DD902383D
:1037D0003D44EB1A40EA01418FE7C1F1200722FA8C
:1037E00007F88B4005FA01F448EA030320FA07FEC4
:1037F0004FEA134CFD404EEA040EB5FBFCF94FEACC
:103800001E440CFB19551FFA83F844EA054509FBD1
:1038100008F4AC4202FA01F200FA01FA08D9ED18F4
:1038200009F1FF3043D2AC4241D9A9F102091D444C
:103830002D1B1FFA8EFEB5FBFCF00CFB10554EEA5B
:10384000054400FB08F8A04507D9E41800F1FF354E
:1038500029D2A04527D902381C4440EA0940A4EBEC
:103860000804A0FB02894C45C6464D4615D312D02C
:1038700056B1BAEB0E0364EB050404FA07F7CB402C
:103880001F43CC40376074600021BDE8F0871846C4
:10389000F8E69046E0E6C245EAD2B8EB020E69EBE4
:1038A00003050138E4E72846D7E7404691E781461B
:1038B000BEE7014678E702383C4445E7084608E79A
:1038C000A8F102083D442BE7704700BF70B50F4ECA
:1038D0000F4D761BB61018BF002405D0013455F8E3
:1038E000043B9847A642F9D10A4E0B4D761B02F0D5
:1038F00079FFB61018BF002406D0013455F8043BF8
:103900009847A642F9D170BD70BD00BFF067400076
:10391000F0674000F8674000F06740000FB400B562
:10392000074983B004AB086853F8042B81680193FE
:1039300000F054FD03B05DF804EB04B0704700BF25
:1039400014004020024B0146186800F00BB800BF7D
:1039500014004020024B0146186801F05BBE00BF16
:10396000140040202DE9F04F01F10B06162E83B014
:10397000054640F29E8036F0070600F1BD80B14258
:1039800000F2BA8000F086FBB6F5FC7FC0F09382AF
:10399000730A00F0B880042B00F27981B30903F1B7
:1039A000390003F1380EC300BF4F3B44A3F10801B7
:1039B0005C68A14206D10CE0002A80F2AA80E4688B
:1039C000A14206D0636823F003039A1B0F2AF3DD9C
:1039D00070463C69DFF8E4E2744500F0AB8163684F
:1039E00023F003039A1B0F2A00F39081002AC7F8E3
:1039F00014E0C7F810E080F29D80B3F5007F80F0FE
:103A00006181DB0803F1010C99107A6857F83C805A
:103A1000C4F8088001238B4007EBCC01134308391D
:103A2000E1607B6047F83C40C8F80C4082100124FC
:103A300094409C4200F28B801C4206D120F003008F
:103A400064001C4200F10400FAD007EBC009CC4628
:103A50008046DCF80C309C4507D16DE1002A80F2ED
:103A60007B81DB689C4500F06781596821F0030188
:103A70008A1B0F2AF2DDD3F80CC0D3F8088000931C
:103A80009C19284646F0010642F001055E60C8F820
:103A90000CC0CCF808807C613C61C4F80CE0C4F830
:103AA00008E065605A5000F0FBFA009B03F108043F
:103AB0001EE0102920D800F0EDFA1026182302206D
:103AC000794F3B44A3F108025C68944200F03D81C9
:103AD0006368E168A66823F00303234428465A6814
:103AE000F16042F001028E605A6000F0D9FA0834A9
:103AF000204603B0BDE8F08F00240C2320462B6045
:103B000003B0BDE8F08F40204FF400734FF03F0E3C
:103B10004AE72344E1685A68A66842F00102F1606E
:103B200028468E605A6000F0BBFA0834204603B085
:103B3000BDE8F08F234428465A6842F001025A60DB
:103B400000F0AEFA0834204603B0BDE8F08FBC6840
:103B5000636823F00308B04504D3A8EB06030F2BDA
:103B600000F38580DFF85891504BD9F800201B688E
:103B70000132334404EB080A00F0558103F5805309
:103B80000F3323F47F6B2BF00F0B5946284600F0C0
:103B90008DFA411C024600F0FC80824500F2F7805D
:103BA000434B19685944196000F04D81D9F8000061
:103BB00001301BBFA2EB0A0A5144C9F8002019606A
:103BC00012F0070100F01581C1F10800C1F5805124
:103BD0000244083102EB0B09C9F30B09A1EB0909F7
:103BE000494628460193009200F060FA431C9DE884
:103BF0000C0000F04381801A484440F0010019682D
:103C0000BA604944BC425060196017D0B8F10F0F38
:103C100040F2FB806068A8F10C0222F0070204EB7E
:103C2000020E00F001004FF0050C10430F2A6060F7
:103C3000CEF804C0CEF808C000F217811D4BBC6856
:103C40001A68914288BF19601B4B1A6891426268DA
:103C500088BF196022F003029642A2EB060301D846
:103C60000F2B04DC284600F01BFA002440E7A219C1
:103C700043F0010346F0010666602846BA605360CF
:103C800000F00EFA0834204603B0BDE8F08F142B84
:103C900071D9542B00F2A380330B03F16F0003F1B1
:103CA0006E0EC30080E600BF40044020400C402060
:103CB000100C4020380C40203C0C40204804402090
:103CC000480840205A0A042A5BD9142A00F2AE8020
:103CD00002F15C01C9005B3207EB010C7958ACF1D1
:103CE000080C8C4500F088804A6822F00302934259
:103CF00073D289688C45F7D1DCF80C207B68E260D0
:103D0000C4F808C09460CCF80C408FE6A11946F0C6
:103D1000010C42F00106C4F804C0284679613961FB
:103D2000C1F80CE0C1F808E04E60E25000F0B8F9CC
:103D30000834DDE67B6879E608F1010818F0030F26
:103D40000CF1080C7FF485AE2DE0DC68A34208BFBF
:103D500002303FF43EAEBBE619441C464A68DB68BD
:103D600054F8086F42F001024A602846F3609E60F2
:103D700000F096F9BCE603F15C0003F15B0EC300B2
:103D800012E69A0902F13901C9003832A4E7BC42AF
:103D900054D0BC68626822F003025DE759F8083924
:103DA000994540F0868010F0030F00F1FF30F5D107
:103DB0007B6823EA04037B6064009C423FF6C7AE45
:103DC000002C3FF4C4AE1C4240467FF43EAE64007B
:103DD0001C4200F10400FAD037E68C468CE7B3F5BC
:103DE000AA7F15D8F30B03F1780003F1770EC30017
:103DF000DAE54FF48051EDE67B689210012101FA7B
:103E000002F213437B60624679E70123536029E79E
:103E100040F25452934222D8B30C03F17D0003F1D7
:103E20007C0EC300C0E503F1100BAEE6542A29D87E
:103E30001A0B02F16F01C9006E324DE7204B196871
:103E400059441960B2E6CAF30B0000287FF4AEAE05
:103E500008EB0B03BA6843F001035360EEE67F20E2
:103E60004FF47E734FF07E0E9EE504F10801284664
:103E7000009301F0CFFB009B1968DFE601204FF0B3
:103E80000009BCE6B2F5AA7F05D8DA0B02F1780189
:103E9000C900773220E740F254518A4205D89A0C83
:103EA00002F17D01C9007C3216E74FF47E717E225B
:103EB00012E77B6880E7F00806F1080300E600BF20
:103EC000100C4020844641EA000313F003036DD137
:103ED000403A41D351F8043B40F8043B51F8043BCD
:103EE00040F8043B51F8043B40F8043B51F8043BD4
:103EF00040F8043B51F8043B40F8043B51F8043BC4
:103F000040F8043B51F8043B40F8043B51F8043BB3
:103F100040F8043B51F8043B40F8043B51F8043BA3
:103F200040F8043B51F8043B40F8043B51F8043B93
:103F300040F8043B51F8043B40F8043B51F8043B83
:103F400040F8043B51F8043B40F8043B51F8043B73
:103F500040F8043B403ABDD2303211D351F8043B13
:103F600040F8043B51F8043B40F8043B51F8043B53
:103F700040F8043B51F8043B40F8043B103AEDD2C2
:103F80000C3205D351F8043B40F8043B043AF9D213
:103F9000043208D0D2071CBF11F8013B00F8013BE6
:103FA00001D30B8803806046704700BF082A13D3F3
:103FB0008B078DD010F003038AD0C3F10403D21A0B
:103FC000DB071CBF11F8013B00F8013B80D331F83F
:103FD000023B20F8023B7BE7043AD9D3013A11F8BF
:103FE000013B00F8013BF9D20B7803704B7843702A
:103FF0008B7883706046704770B4860746D0541E35
:10400000002A41D0CAB2034602E014F1FF343BD388
:1040100003F8012B9D07F8D1032C2ED9CDB245EA28
:1040200005250F2C45EA054519D903F1100226464E
:10403000103E0F2E42F8105C42F80C5C42F8085C0F
:1040400042F8045C02F11002F2D8A4F1100222F04E
:104050000F0204F00F041032032C13440DD91E4636
:104060002246043A032A46F8045BFAD8221F22F0BB
:1040700003020432134404F003042CB1C9B21C44FB
:1040800003F8011B9C42FBD170BC704714460346E9
:10409000C2E700BF014801F057BD00BF300D40200E
:1040A000014801F053BD00BF300D402038B5074C2A
:1040B0000023054608462360FCF7C8FF431C00D0D8
:1040C00038BD2368002BFBD02B6038BD440D402049
:1040D00000290CBF022200224FF4806300F000B8D8
:1040E0002DE9F043614C256883B004460F469046A5
:1040F0001E4615B1AB6B002B64D0B8F1020F06D091
:10410000B8F1010F00F29F80002EC0F29C80636E18
:10411000D80734D52146284601F0FEF8216B41B17D
:1041200004F14003994202D0284601F073FA0023BB
:104130002363B4F90C300022A26162601A063AD4FB
:1041400023F44A6323F00303B8F1020FA3811DD0C7
:1041500001AB6A462146284601F0FAFCA3891843C0
:10416000A081002E32D1009E3046FFF7EBFB0746C0
:1041700000286BD0A38943F08003A38128E0A389A2
:104180009905C7D4A06D01F0DFFCC3E70025616E7F
:10419000002604F1430243F002030120A660CE078B
:1041A000A38122602261606101D498053ED5284632
:1041B00003B0BDE8F0832169284601F02BFAB4F979
:1041C0000C30BDE7284601F0FFF896E7002FCBD072
:1041D000AB6B002B33D0009BB4F90C2027609E42C0
:1041E0001CBF42F40062A281B8F1010F04BF42F08B
:1041F0000102A28192B212F00803276166610ED01B
:10420000D1071AD5656E7642002315F00105A66127
:10421000A36009D00025284603B0BDE8F083A36061
:10422000656E15F00105F5D19305C0D4A06D01F0C0
:104230008DFC284603B0BDE8F083A660F0E7284671
:1042400001F0C2F8C7E74FF0FF35B0E7DDF80090A6
:10425000B14504D04846FFF775FB074620B9B4F9CD
:104260000C304FF0FF3592E74E4683E714004020B4
:10427000000000000000000000000000000000003E
:1042800090F800F06DE9024520F007016FF0000C96
:1042900010F0070491F820F040F049804FF000043E
:1042A0006FF00700D1E9002391F840F000F1080019
:1042B00082FA4CF2A4FA8CF283FA4CF3A2FA8CF351
:1042C0004BBBD1E9022382FA4CF200F10800A4FAB8
:1042D0008CF283FA4CF3A2FA8CF3E3B9D1E904230C
:1042E00082FA4CF200F10800A4FA8CF283FA4CF343
:1042F000A2FA8CF37BB9D1E9062301F1200182FAFD
:104300004CF200F10800A4FA8CF283FA4CF3A2FA02
:104310008CF3002BC6D0002A04BF04301A4612BA10
:10432000B2FA82F2FDE8024500EBD2007047D1E913
:10433000002304F00305C4F100004FEAC50514F0A2
:10434000040F91F840F00CFA05F562EA05021CBF73
:1043500063EA050362464FF00004A9E72DE9F84F30
:104360004B6E9C0493462FD59368126853B30E4648
:10437000074602F1080919E920045FEA9A0817D0F4
:10438000043D002401E0A04510D0324655F8041F3A
:10439000384601F0BBF8431C04F10104F3D10023BB
:1043A000CBF80830CBF80430BDE8F88FDBF80830E4
:1043B0002AF0030AA3EB0A03CBF8083009F1080935
:1043C000002BD8D10020EAE701F00AFA0023CBF84D
:1043D0000830CBF80430BDE8F88F00BF2DE9F04F6E
:1043E000ADB01D468B4690460793069018B1836B7F
:1043F000002B00F0F380DBF86430BBF90C00DF0722
:1044000081B202D48E0540F1FC808C040AD4DBF822
:10441000643040F4005123F40053ABF80C10CBF897
:10442000643089B2080740F1B380DBF81030002B0C
:1044300000F0AE8001F01A030A2B00F0B5800023D3
:104440000DF170090B93119310930393CDF83C90E9
:10445000CA46CDF810B098F800304446FBB1252B81
:1044600002D11CE0252B03D014F8013F002BF9D119
:10447000A4EB08059DB1109B119ACAF80080013386
:104480002A44072BCAF80450119210937ADD002AAF
:1044900040F0B084039B10922B44CA4603932378C8
:1044A000002B00F0E08300204FF000038DF8373040
:1044B00004F1010862780546064603464FF0FF34D2
:1044C00008F10108A2F12001582900F2DE82DFE89C
:1044D00011F02102DC02DC022902DC02DC02DC0237
:1044E000DC02DC02DC0289029502DC02A200BD02D1
:1044F000DC029F01A401A401A401A401A401A40160
:10450000A401A401A401DC02DC02DC02DC02DC0266
:10451000DC02DC02DC02DC02DC02B201DC02DC02D6
:10452000DC02DC02DC02DC02DC02DC02DC02DC029B
:104530009701DC02DC02DC02DC02DC029B01DC0213
:10454000DC025302DC02DC02DC02DC02DC02DC0204
:10455000DC02DC02DC02DC025A021B02DC02DC02AE
:10456000DC026E021B02DC02DC027302DC02F501DB
:1045700082010902D702DC029A02DC02A700DC02F7
:10458000DC022E020AF1080A039B2B44039386E700
:104590005946069800F0ACFD18BBBBF80C1001F0B2
:1045A0001A030A2B7FF44BAFBBF90E30002BFFF63A
:1045B00046AFDBF86430DB0705D48F0503D4DBF8A6
:1045C000580001F0C3FA2B4642465946069800F0BF
:1045D0004DFD039003982DB0BDE8F08F00F0F4FE80
:1045E00009E7DBF86430D90704D4BBF80C309A052E
:1045F00040F1AA844FF0FF33039303982DB0BDE838
:10460000F08FDBF8580001F09FFABBF90C0081B283
:10461000FBE67642079243F0040398F800204FE748
:1046200008969E0600F150840799DD060A4600F1BF
:10463000EF83580640F1EC830E88043100270122F5
:1046400007914FF000018DF837100025611C00F034
:10465000168123F08001029156EA070140F014818F
:10466000002C40F05C83002A40F0B78313F0010374
:10467000059300F057840DF1B00B30230BF8413D4A
:10468000059BA342B8BF234601930DB101330193AB
:10469000029B13F00203099302D0019B02330193A2
:1046A000029B13F084030A9340F01782089B019A3F
:1046B0009D1A002D40F31182102D40F39084109B21
:1046C000119AC44ED6461027A2461946069C07E00A
:1046D00001F1020C0EF1080E0146103D102D11DD06
:1046E000481C1032072811928EE8C0001090EFDDB0
:1046F000002A40F0E481103D102D11464FF0010CCE
:10470000CE46EDDC54466146F2462A440729119212
:10471000CAF80060CAF80450109100F3EC829DF8CA
:1047200037500AF1080A481C002D40F0DE81099B31
:10473000002B00F0F88102320EA902230728119203
:1047400010908AE80A0040F3EA81002A40F08C8346
:104750000A9B802B4FF001001146CA4640F0E781CA
:10476000089B019D5E1B002E40F3E181102E9A4DA7
:1047700040F35084D4461027A246069C07E001F17E
:10478000020E0CF1080C0146103E102E11DD481CE3
:104790001032072811928CE8A0001090EFDD002A5B
:1047A00040F09D82103E102E4FF0010E1146CC4677
:1047B000EDDC5446E2463244BEF1070F11928AE81E
:1047C0006000CDF840E000F369830AF1080A0EF1B9
:1047D00001007146ABE1089613F0200240F08C8393
:1047E00013F0100140F01A8313F0400200F016831A
:1047F00007980A460146043106880791002720E7FA
:10480000089643F01003E7E7089643F0100308E723
:1048100043F0800398F8002052E6A2F13001002610
:1048200018F8012B06EB860601EB4606A2F13001D3
:104830000929F5D946E60896002840F0088443F097
:1048400010039E0600F14C83DD0600F1F38258064A
:1048500040F1F082079DB5F900602A46F71704324F
:10486000304639460792002871F10002C0F25D839C
:10487000611C9DF837504FF001027FF4EAAE56EA12
:10488000070100F04D820293012A00F08C82022A77
:1048900040F05C820B98CB46330906F00F0143EAE7
:1048A00007733A091E461746435C0BF8013D56EA6A
:1048B0000703F1D1A9EB0B030593E1E6002840F0D3
:1048C000C083990600F16783DA0600F1F1805B0688
:1048D00040F1EE80079A136804320792BDF80C206D
:1048E0001A80B8E507983D4A08960B920668782228
:1048F000302104308DF8392043F00203079000275F
:104900008DF8381002229CE60896002899D08DF880
:10491000375096E798F80020002D7FF4D1AD0120A4
:104920002025CDE543F0010398F80020C8E508965E
:10493000002840F0938329490B919F0600F1E882FB
:104940000798DE06014600F170825D0640F16D8237
:104950000431068807910027D80740F1228256EAE1
:10496000070100F01E8230218DF8392043F0020348
:104970008DF83810022264E60896002840F06B8318
:1049800017490B91D9E7079908960A688DF84820CE
:104990004FF000000A468DF83700043201200190E4
:1049A000079205900DF1480B0293002470E643F046
:1049B000400398F8002083E598F800206C2A03BF94
:1049C00098F8012043F0200308F1010843F0100398
:1049D00076E500BFB0664000C066400094664000C7
:1049E0008066400007990E680A46002E02F1040214
:1049F000FFF60FAE079298F8002061E598F80020C6
:104A000001202B255CE507990896D1F800B04FF0FE
:104A100000028DF837200E1DBBF1000F00F0E5827B
:104A2000671C00F0C482224600215846019301F021
:104A30001FF9019B002800F0E582A0EB0B02059214
:104A4000079602939DF83750002419E698F8002045
:104A50002A2A08F1010700F0E982A2F130010929B0
:104A6000B8464FF000043FF62DAD18F8012B04EBCB
:104A7000840401EB4404A2F130010929F5D921E5B0
:104A800043F0200398F800201AE50896002840F02B
:104A9000DB82002A00F0E78001218DF848204FF0EA
:104AA000000201918DF8372005910DF1480B7BE74D
:104AB000079A136804320792039A1A60CBE40FAA8C
:104AC00004992046FFF74AFC002840F039811099EC
:104AD000119A01F1010CCE46FFE51099119A481C7C
:104AE0009DF83750002D3FF422AE01320DF137050D
:104AF0000121072811921090CAF80050CAF804103A
:104B000040F30881002A40F0BC81099B002B3FF450
:104B10001FAE0EAB022208461C931D92CA460146E8
:104B20000AF1080A01300A9B802B3FF419AE059B5D
:104B3000E41A002C2EDD102CB34D1EDDD6461026B7
:104B4000069FDDF810A006E0881C0EF1080E19463D
:104B5000103C102C10DD4B1C1032072B11928EE8EC
:104B600060001093F0DD002A65D1103C102C4FF04E
:104B700001001146CE46EEDCF2462244072811928F
:104B8000CAF80050CAF80440109000F385800AF17A
:104B9000080A01300599CAF800B00A4407281192A2
:104BA000CAF80410109040F38280002A40F0188167
:104BB000029B1092580735D5089B01995C1A002C6E
:104BC00040F3E780CA46102C40F3188210998F4EAC
:104BD000069FDDF810B0102506E0881C0AF1080ACF
:104BE0001946103C102C11DD4B1C1032072B119272
:104BF000CAF80060CAF804501093EEDD42BB103CC6
:104C0000102C4FF001001146CA46EDDC2244072863
:104C10001192CAF80060CAF80440109051DD002AD1
:104C200040F09B81039B089A01998A42ACBF9B1874
:104C30005B1803934EE00FAA51463846FFF78EFBF0
:104C4000002840F03F811099119A481CCE467FE71A
:104C50000FAA59463846FFF781FB60B91099119A9F
:104C6000481CCA46BDE7119BDDF810B0002B40F090
:104C7000D48100231093DBF8643013F0010FBBF8EC
:104C80000C3002D19A0540F1DE805B063FF5B2ACF4
:104C900003982DB0BDE8F08F002A40F00681059AF8
:104CA0001D9201231192CDF870B01093CA460AF1FB
:104CB000080A029B590704D5089B01995C1A002C2D
:104CC00081DC039B089901988142ACBF5B181B18DB
:104CD000039372BB00231093CA46FFF7BCBB0FAA15
:104CE00004992046FFF73AFB50BB1099119A01F145
:104CF000010ECC4648E5002A40F040819DF837106F
:104D0000002900F01B8101220DF1370110461D9290
:104D10001C91CA4601460AF1080A013007E5029BC8
:104D2000012A00F09880022A0DD102930026002764
:104D3000B0E50FAA04990698FFF710FB0028C9D028
:104D4000DDF810B097E7029300260027494600E0FF
:104D50005946F20842EA4772F80806F00703074688
:104D60001646303356EA070201F8013C01F1FF3BD9
:104D7000EED1029AD6077FF59DAD302B3FF49AAD68
:104D8000023930230BF8013CA9EB010305938B4654
:104D900076E4039B089A8A42ACBF9B185B18039386
:104DA00098E702224DE4002F08BF0A2E52D3CB46CB
:104DB000304639460A220023FEF700FC30320BF859
:104DC000012D3046394600230A22FEF7F7FB06463E
:104DD0000F4656EA0703EBD16CE50594CB464FE44A
:104DE0000FAA04990698FFF7B9FA0028A8D1119ADA
:104DF000CA465EE70FAA04990698FFF7AFFA0028A3
:104E00009ED1CA46FFF7C0BBC0664000B0664000F6
:104E10000431166807910122002712E40798014621
:104E200004310668079100270BE40E6804310791EE
:104E3000002791E507990E680A46F7170432079292
:104E4000304639460FE5DBF8580000F07FFEBBF82E
:104E50000C301AE7029B02930DF1B00B30360123A0
:104E60000BF8416D05930BE40FAA04990698FFF720
:104E700075FA00287FF464AF1099119A481CCA464D
:104E800051E60FAA04990698FFF768FA00287FF404
:104E900057AF1099119A481CCA4648E4002A40F0BE
:104EA000918001201146CA4641E60FAA049906984E
:104EB000FFF754FA00287FF443AF1098119A01309D
:104EC000CA4667E6D346D6E6079E073626F00702AF
:104ED00002F10801D2E9006707910122FFF7B1BB97
:104EE000079E073626F00706D6E9000106F10802FC
:104EF000079206460F46B6E4079E073626F00702DD
:104F000002F10801D2E9006707910022FFF799BB7F
:104F1000079E073626F0070101F108000790D1E946
:104F2000006719E5CB46FFF7ABBB2D25764267EB53
:104F300047078DF837500122FFF788BB099BB3B9AB
:104F400011460120CA46F2E5DBF8580000F0FEFDEC
:104F50004FF0FF330393FFF750BB0FAA0499069855
:104F6000FFF7FCF900287FF4EBAE119AA9E60EAB2F
:104F700002221C931D920120CA46D0E50FAA049973
:104F80000698FFF7EBF900287FF4DAAE1099119A32
:104F9000481CCA46A4E5079A03991368CD1708462A
:104FA000043229460792C3E90001FFF754BA584674
:104FB00007960293FFF764F9002405909DF8375097
:104FC000FFF75EBB0FAA04990698FFF7C7F9002800
:104FD0007FF4B6AE1099119A481CCA46A7E51099FD
:104FE000119A204E0131FFF790BB062C28BF0624F2
:104FF000059407960194DFF870B0D5E41098194E27
:10500000013003E605949DF8375007960293044655
:10501000FFF736BB8646FFF7CEBB06980FAA594668
:10502000FFF79CF900283FF424AE24E6079998F88E
:1050300001200C68043144EAE474B8460791FFF794
:105040003FBA8DF837503CE48DF8375021E58DF8A4
:105050003750FFF7F4BB8DF8375091E48DF8375097
:1050600069E400BFB0664000A86640002DE9F04149
:105070000C46ADF58D6D8989666EE589199621F02E
:1050800002010646E069ADF80C1017464FF4806146
:10509000626AADF80E5098461AAD0023079016A824
:1050A00009920693009504950291059100F048FD40
:1050B00043463A4669463046FFF790F9051E07DB3E
:1050C0003046694600F028F9002818BF4FF0FF3538
:1050D000BDF80C305B0603D5A38943F04003A381E0
:1050E000169800F02FFD28460DF58D6DBDE8F08176
:1050F00038B5304B1B6805460C4613B19A6B002A35
:1051000038D0B4F90C2093B218070CD52069A8B197
:1051100013F001021ED0636900225B42A361A2600A
:10512000F0B1002038BDD9063CD5580726D42069F7
:1051300042F00803A3819BB20028E9D103F4207256
:10514000B2F5007FE4D02846214600F02FFDA38968
:105150002069DDE7990758BF6269A2600028E0D1A5
:10516000B4F90C301A06DDD543F04003A3814FF0AB
:10517000FF3038BD184600F027F9C2E7216B51B166
:1051800004F14003994204D0284600F043FAB4F9F0
:105190000C200023236300232069636022F0240293
:1051A0002060C5E742F0400209232B604FF0FF303A
:1051B000A28138BD14004020024B13B1024800F018
:1051C00005B8704700000000395440000023014634
:1051D0001A46184601F090B8B1F90C309AB22DE990
:1051E000F0410D46110780463AD46A6843F40063E3
:1051F000002AAB816FDDAC6A002C49D000229BB243
:10520000D8F80060C8F8002013F4805267D02A6DE7
:105210005F0705D569682B6B521A0BB1EB6BD21A7D
:105220000023E9694046A047441C3CD0B5F90C3046
:105230002A692A6023F400630022AB81DB046A60E0
:1052400047D4296BC8F8006011B305F140039942B7
:1052500002D0404600F0DEF900202863BDE8F0816E
:105260002E69AEB12C682E6091070CBF6B690023CC
:10527000A41BAB600AE0234632466F6AE9694046E8
:10528000B8470028A4EB0004064404DD002CF2DC3F
:105290000020BDE8F081AB8943F04003AB814FF0C3
:1052A000FF30BDE8F081D8F800401D2CF3D8194B31
:1052B000E340DB4313F00103EDD1B5F90C206B6043
:1052C00022F400632969AB81DA042960B9D5002C86
:1052D000B7D12865B5E7EA6B002A8CDCD8E7012353
:1052E000E9694046A047431C024602D0AB89AC6A3C
:1052F0008EE7D8F80030002BF8D01D2B01D0162BEC
:1053000002D1C8F80060C3E7AB8943F04003AB812A
:10531000BDE8F0810100402038B50D46044608B1D3
:10532000836BBBB1B5F90C0088B16B6EDB0701D4A0
:10533000810517D520462946FFF74EFF6B6EDA0729
:10534000044602D4AB899B0507D5204638BD0446E8
:10535000204638BD00F038F8E4E7A86D00F0F6FB11
:10536000204638BDA86D00F0EFFBE3E7014900F0EF
:10537000AFBB00BFE163400010B50023044681814C
:10538000C28103604360836043660361436183615C
:10539000194608225C30FEF72FFE07480749084AE5
:1053A000084B2062E4616162A262E36204F158008A
:1053B000BDE8104000F0C4BB2561400049614000D9
:1053C00085614000A561400010B50446124800F018
:1053D000BBFBA26BD2B904F53B731048C4F8E832AA
:1053E0000321C4F8E022E063C4F8E41260680421F9
:1053F000FFF7C2FF01220921A068FFF7BDFF0222CB
:105400001221E068FFF7B8FF0123A3630248BDE85B
:10541000104000F09BBB00BF2C0D40206D5340009E
:10542000014800F091BB00BF400D4020014800F052
:105430008DBB00BF400D402038B50A4C0A4D641B9F
:10544000A4100AD004F18043013B05EB8305013C25
:1054500055F804399847002CF9D1BDE8384001F0DF
:10546000CBB900BF08684000046840002DE9F04750
:1054700082B080468946144600F054FB012836D09D
:105480004A4604F15C0301A9404600F0E7FE421CD5
:10549000064625D0A8B39DF804E000250DF1040AC6
:1054A00009E023685A1C226083F800E00135B54208
:1054B00027D215F80AE0A368013B002BA360F0DABD
:1054C000A769BB4271462246404602DBBEF10A0F85
:1054D000E7D100F06BFE431CE8D102B0BDE8F087D5
:1054E000A38943F04003A38102B0BDE8F08709F12E
:1054F000FF33FE2BC4D85FFA89FE06468DF804E020
:10550000CBE7484602B0BDE8F08700BF30B5536E28
:1055100013F0010FB2F90C30144683B005469AB26D
:1055200001D190051CD5900406D4626E43F400535B
:1055300042F40052A381626628462246FFF796FF96
:10554000636EDA07054602D4A3899B0502D5284677
:1055500003B030BDA06D00F0F9FA284603B030BDAD
:10556000A06D019100F0F0FAB4F90C3001999AB2F3
:10557000D9E700BFF8B5244F0C460646FEF78AFD72
:10558000BB685D68C4F57E610F3125F003052944D1
:1055900021F47F6121F00F01A1F58054B4F5805F03
:1055A00007DB00213046FEF781FDBB682B449842A3
:1055B00004D03046FEF774FD0020F8BD614230464D
:1055C000FEF774FD01300DD0104BBA6819682D1B21
:1055D00045F001053046091B55601960FEF760FD76
:1055E0000120F8BD00213046FEF760FDBA68831A3D
:1055F0000F2BDEDD064C0549246843F00103001B38
:1056000053600860D5E700BF40044020100C4020E4
:1056100048084020002944D02DE9F0410D4680463D
:10562000FEF738FD55F8047C694927F00103A5F120
:105630000804E2188E685068B24220F003005ED081
:10564000FE0750600BD455F8087CE41B01F1080EEE
:10565000A56875453B446DD0E768EF60BD601518DF
:105660006D68ED073ED543F001026260E350B3F58B
:10567000007F17D2DB08581C9A104D6851F8307023
:10568000A7600123934001EBC0022B43083AE2607C
:105690004B6041F83040FC604046BDE8F041FEF709
:1056A000FFBC70475A0A042A52D89A0902F13907F6
:1056B000FF0002F13805C819CA59083890424FD086
:1056C000516821F003018B4232D292689042F7D1A7
:1056D000C368A060E3609C60C4604046BDE8F041E0
:1056E000FEF7DEBC95683B4FBD42034440D0D06816
:1056F000E86043F0010285606260E350B7E7FF07AE
:10570000034407D455F8082CA41A1344A068E2688F
:10571000C2609060304A126843F0010093426060BA
:105720008C60B9D32D4B40461968FFF723FFB3E7D0
:105730001046CDE711184968C90744D49168D2686A
:10574000CA60034443F0010091606060E350A3E746
:10575000142A16D802F15C07FF0002F15B05AAE7E4
:10576000AA1001234D6893402B434B600346B0E7DA
:1057700043F001024C610C61E560A5606260E3509A
:105780008AE7542A06D81A0B02F16F07FF0002F1CC
:105790006E0590E7B2F5AA7F06D8DA0B02F178071A
:1057A000FF0002F1770586E740F25450824206D8A6
:1057B0009A0C02F17D07FF0002F17C057BE74FF4B4
:1057C0007E777E2577E743F001016160136063E730
:1057D00040044020480440204C084020400C402019
:1057E0009368002B73D02DE9F04F8B8983B00C4662
:1057F00019070090164626D5226922B313F002003D
:1058000035682CD04FF00009B04FC846B246B845B5
:1058100043464A4628BF3B460098B8F1000F50D097
:10582000E169666AB047002858DDDAF808301B1ACB
:105830008144A8EB0008CAF80830002BE7D100200B
:1058400003B0BDE8F08F21460098FFF751FC002817
:1058500040F03381A389356813F00200D2D113F0F0
:10586000010945D14F46019637B39A05D4F808800F
:1058700040F183804745C346C0F0AB8013F4906F7E
:1058800040F0AC802068BA465A46494600F040FADB
:10589000A2682368A2EB08025B44A2602360019A1D
:1058A0009368A3EB0A03D144A7EB0A079360002B8C
:1058B000C5D0A389002FD8D1D5F800906F680835DE
:1058C000D2E7D5F80090D5F8048008359FE700208E
:1058D000704721460098FFF71FFD70B3B4F90C30F4
:1058E00043F040034FF0FF30A38103B0BDE8F08FD9
:1058F000814633464E46A8469A464D464EB380B33F
:10590000206823696269B145CB4628BFB3469842F7
:105910005F4604D9A36813449B4500F3A6809345D2
:105920004BDB1346676AE16900982A46B847071EB1
:10593000D4DDB9EB0709CCD00120DAF80830DB1B45
:105940003D44F61BCAF80830002B3FF478AF002E18
:10595000D5D108F1080313E9600098460833002EFA
:10596000F9D032460A21284600F082F9002800F0DA
:10597000A1800130A0EB0509C2E7206823699842A5
:1059800002D863699F425DD2B84528BFB8464246F7
:10599000494600F0BDF9A3682268A3EB080342441E
:1059A000A36022600BB1C24679E721460098FFF759
:1059B000B3FC002892D1C24671E75A46294600F04E
:1059C000A7F9A2682368A2EB0B025B44A2602360E4
:1059D000AFE72068B846BA46BB4655E7626920681B
:1059E000216902EB4208A0EB010A08EBD8780AF122
:1059F00001004FEA680838444045424684BF80466B
:105A000042465B0544D511460098FDF7ABFF83463F
:105A1000002855D052462169FEF754FAA38923F491
:105A2000906343F08003A3810BEB0A00A8EB0A0309
:105A3000C4F810B0C4F814802060A360B846BA4619
:105A4000BB4621E76FF00041B94228BF39464A46BC
:105A500091FBF3F10098666A03FB01F3E169B0473B
:105A6000B0F1000A3FF71BAF38E71A462946019309
:105A700000F04EF92268019B00981A4422602146EA
:105A8000FFF74AFC019B00287FF428AF1F4650E730
:105A9000009800F0A1F983460028C5D1009D216936
:105AA0002846FFF7B7FDB4F90C300C2223F0800331
:105AB0002A6015E706F1010922E74FF0FF30BFE643
:105AC000009A0C231360B4F90C3009E700FCFF7F47
:105AD0002DE9F84310F538771FD0884606464FF079
